:020000040000fa
:080000000002040000000000f2
:020000040000fa
:100400002f8920000e7f22000e01880000000000ce
:100410000c00070020d5200001002000110007007b
:10042000000020000000e000020032000000020096
:1004300000000000d2090200000000000040da00c5
:100440000000fe004440a900000020000000e00081
:100450000300320000002000a00188004440a800f2
:100460000000060091018800800078000000eb0089
:1004700015003700e280400032a0b4009101ba00bc
:10048000e280400032a0b4009102ba00e280400055
:1004900032a0b4000002eb00472bde00f507b200eb
:1004a000602ce10004003a000059eb008301e900f0
:1004b000fdff3e00040037006128e100010032002a
:1004c0000082eb00040007001101ba000200e00006
:1004d000e8ff3a00000006003159ba008301e90044
:1004e0000c0032002159ba008301e90008003200f3
:1004f0000400e00003003a00e280400032a0b400b3
:10050000f5ff370011d9ba008301e900faff3a007c
:100510008100e800e180400032a0b4000000060045
:100520000040da000000fe00889fbe008a9fbe00e7
:10053000010578000100e0000400350008003c00df
:100540000000e000200032000500370060001000cd
:10055000e080180002003b0001f02c001a00370078
:100560000004be006011b8006b0920000982cf00b2
:10057000020039000882cf000441b00069425200f5
:100580000e00320008003b008281710061016400ae
:100590008904d1000884d3008b05e8000442e800f8
:1005a000f9ff3a00050037000804440089844c0034
:1005b0008b05e9000442e900fbff3a0061010700f6
:1005c0000af0a70001f0a0004f05be004f04be00d6
:1005d0000000060003f0a200889fbe008a9fbe00b4
:1005e0008c1f78007d010700840133006450e10016
:1005f0004f0032006420e1005200320003826c00a0
:1006000007003b000905d0000306d000820f54000c
:100610000c065d00020039000200320089017800fa
:10062000030678008582550004003d000003fd00ac
:100630008103fd008502ea008b854200840f720071
:1006400002003b0060001000e08018006011b8005c
:100650000005eb007a28e1000a0039000600780066
:10066000c75ddd00f707b200878075002d003700f9
:10067000828171000a017800610560008180d100eb
:100680000080d3008502e900f9ff3b00060440002a
:100690008784480002003b0060041400e0841c00d2
:1006a0000988a300070032008a81710082817100ed
:1006b000610164008904d1000884d3008b05e8003f
:1006c000170037000978a30013003a000b00e00080
:1006d000130034008b05e9000804440089844c00b1
:1006e0000a4474000978a3000d003a000b00e000f2
:1006f000070034008b05e9000804440089844c009d
:1007000001003a000b0020000978a300f7ff320037
:100710000001eb0002003700828171000a017800bd
:10072000080107000cf0a70001f0a0003c01370011
:100730006420e10002003a00838f6c003c0133002a
:100740000801be000200be00350137000c00fa00af
:10075000889fbe008a9fbe008c9fbe001f010700bd
:100760000206be00840578000200be0002002000e0
:100770003201070005003a008b02b300120020008e
:100780002e01070001003a00f8856d000c01be0043
:10079000c60007000800be009b0032000b08a30043
:1007a0009e003a000df0a7000be0a00009f0a700a2
:1007b0000bf0a00009f0a1000801be00bb0007007b
:1007c0000bf0a6009500320001003c000bd0a00009
:1007d0008acf7500b20033006000b8006250e100bb
:1007e00099003900a1003e000b28a300a2003a00a6
:1007f0000bf8a300060032000b58a300a70032003c
:100800000801be00a90007000800be0094003200e5
:100810000800be00300107000004be000505780096
:100820000bf0a7000b30a6000bf0a1005b079800af
:10083000324f200053f323003401070005003d0030
:100840000800be0012002000320107000004be00b4
:100850000a05e9004a0798006150b90032ff070015
:10086000008fbe000c01be004c0107007f01070095
:10087000300798000100e00002003d006000100019
:10088000e0801800f2ff2700820f5000e08f580030
:1008900064003e000c00be007401070020079800b1
:1008a000f2072000820f5000e08f580005003c0046
:1008b00012f82f00f3ff2f00820f5000838f580093
:1008c00009003d000a00e0000300320001003c0086
:1008d0000201ea00020578006000b80020079800d5
:1008e0003a079800190037003e0090006100b900f7
:1008f0000dff0700809fbe000c00be004109dd0017
:100900004811de007208b100cc0007000005be00ef
:100910001e01be00210107004f01be002dff070090
:10092000809fbe000c00be000a01be0029ff070028
:100930001e01be00190107004f01be0026ff07007f
:100940008221270013f32300140107000005be00d5
:100950002e0090006100b900f3fe070001f0a20034
:100960000c01be001cff07000006be000800be0010
:100970005f0107000c01be00080107000a01be006c
:1009800015ff0700809fbe004a0007002e0590005b
:100990000af0a7000a05ea00050037000800be00bb
:1009a0000801be00fd0007000004be000c00be00f0
:1009b0000801be000a00a700f80007000006be00fc
:1009c0000a05d100f5ff3a005e01900002e0a600a2
:1009d000030037000001be00360007009b0107003e
:1009e0000004be004f00be00da0107000801be008f
:1009f000ea0007003e019000c6000700de059000f7
:100a00000bf0a70001f0a2004f06be004f05be008c
:100a10004f04be000080fa00000006002500070019
:100a2000f9ff3700270007006000b8000bd0a700cf
:100a30000bc0a0000be0a7000bc0a2000bc0a700da
:100a400001f82700f0ff37000df8a3000200320084
:100a50001e000700190007000bf8a300eaff320090
:100a60000b30a70001f0a200e7ff37000df8a3004c
:100a7000f9ff3a00f7ff37000801be000b0007003e
:100a8000e6ff320001003c000df0a2006000b8005b
:100a90000df0a70009000700dbff37000b0007007f
:100aa000f1ff2700f0ff2f00d7ff370001000700fc
:100ab0009600370001f823000000050001f8270028
:100ac0000000050020022000010037001002200075
:100ad00080448800000006000001be00ff010700fe
:100ae0000470a70003f0a10003f8a30013003a006c
:100af0006509b10010003200090035006928e100e5
:100b00000200350001002800000005000000400040
:100b1000818048008502e900fcff3a0000000600e1
:100b2000f88f4200050035008100d1000080d3001d
:100b30008502e800fcff3a00000006008000eb00a0
:100b40000000050081002000618055000b003d0081
:100b50000b00200061fe2f000100e1001d003400a9
:100b600082817100610164008904d1000884d3008e
:100b70000000e800faff3a00710020006100640004
:100b800003007000020060000900320061044400ac
:100b9000e0844c000988a500050032008b05e800c0
:100ba0006808e10002003a008904d1000884d300fb
:100bb000f20f20000258e10005003d00c75ddd0096
:100bc000f907b2008980750008007800000006006f
:100bd0000bf827008b007800000005000004be0021
:100be000be0107000003be000405be000200be00f7
:100bf000ba010700844f7500000006000200be0025
:100c00006450e100050036006420e1000200360077
:100c10000968a30001003a000800be000160a000be
:100c20004f0678004f05be004f04be0000000600ce
:100c3000f0ff2f00f1ff2700f9ff3700889fbe006b
:100c40008a9fbe000003be00a4010700850578004e
:100c500082815200020020006220e10004003a007c
:100c6000f307b100040035007718e10004003500f7
:100c70000600be00140037006000b8000f00370007
:100c8000f50f2000faff2f008502d1000a85d3005e
:100c90008301e900fcff3b008184620000046500e1
:100ca000890f7400f2ff32008582ea000a85ea00ab
:100cb0008184620000046500a2ff070007f0a7001e
:100cc00001f0a0000081eb000200e0004f05be0033
:100cd0004f04be00000006000003be007f010700b5
:100ce0006220e100020032000600be00050005009f
:100cf000e507b100f107b20004f023008480700022
:100d000007f0a70001f0a000240005001400200057
:100d1000870137000003be00700107006220e10078
:100d2000020032000600be000000060085024100fd
:100d3000e30f20000328e10005003c00a3fe2f0084
:100d40000328e10007003d000500200001003700f6
:100d5000f50f200020022000804488006000b800c9
:100d600008003700130020008381520005003d0079
:100d70008100d1000080d3008301e800fcff3a002d
:100d800005002000c72add00f107b2008580700051
:100d900007f0a70001f0a00000000600889fbe0039
:100da0008a9fbe008c1f78008cff070093ff3300e2
:100db00003866c006450e100240032006420e100ee
:100dc000270032006150e100220032006120e10082
:100dd000210032008b854200eb07b1000134b800de
:100de000003ab8000804420089844a00013ab80079
:100df0000030b8008880400009014a000400330038
:100e00000000400081804800020149008b05e90094
:100e1000c909dd00830170000100320013002000c9
:100e2000c814de004814dd004709de001200b200dd
:100e3000c808de000884700042ff070001f0a1002e
:100e40000cf0a70001f0a00075ff37006120e10061
:100e500077ff32000801be000200be00f7ff370036
:100e60006150e100fcff3a0071ff37000001be0055
:100e70001a0107000470a70003f0a1006509b10082
:100e8000160032000d0035006828e100060035002c
:100e9000f0ff2f00f1ff27000300e00013003b00ec
:100ea000010028000000050000004000818048008b
:100eb0008502e900fcff3a0008003700f88f420085
:100ec00002003c008000eb00000005008100d10022
:100ed0000080d3008502e800fcff3a000300e00038
:100ee00002003b0060001000e080180000000600d7
:100ef000889fbe008a9fbe008c9fbe0076ff0700c1
:100f0000850478000005be006420e10049003e0031
:100f10006220e10003003200090035000bf8a30055
:100f2000440032000bf8a300080032001002200039
:100f300080448800f0ff2f00f1ff27003d003700bc
:100f400001f82f00000020003a0037003d000700a4
:100f5000a0fd07000006be000a00be00324f2000c0
:100f600053f323000d010700060034000c00be00ff
:100f70003400070097fd07000006be000a00be000f
:100f8000020037008904e9000c00be002d000700b4
:100f900082ff07002b0007008ffd07000001be0045
:100fa0000c00be00290007000005be000001be00c5
:100fb0007aff07000006be00a2f32300430d2c00b9
:100fc00085fd0700809fbe000c00be00d2e3270015
:100fd000d3f02b0071ff07004f01be001b0007007c
:100fe0000006be000a01be006cff07000a01be0039
:100ff00079fd07000006be006148b9004afd070000
:101000000005be0032082800e3952b0063ff0700af
:101010000c01be0070fd07000006be000a00be0005
:101020000200280013f323005cff07000c01be0040
:1010300069fd07004f06be004f05be004f04be000d
:101040000000060003f0230002000500889fbe0098
:101050008a9fbe008c1f7800e0fe0700e7fe330089
:1010600003866c006450e1002e0032006420e10031
:10107000330032006150e1002f0032006120e100b6
:101080003100320085855500eb07b00009002000d3
:1010900008042000050037000804440089844c003f
:1010a0000a0031000603430087834b000001530010
:1010b00081815b00f8ff33000203be000800a0003e
:1010c0000804440089844c00f6ff3900c639dd006d
:1010d0008301730001003200130020008904d10055
:1010e0000884d3000998a300050032000800a70077
:1010f0000300a0008904d1000884d3008b05e80018
:101100008904d1000884d3000001eb000281d200e1
:101110008cfe070001f0a1000cf0a70001f0a00078
:10112000bffe37006420e100c1fe32000801be00ae
:101130000200be00f7ff37006120e100bcfe320074
:101140006000b800f3ff37000000200001f827001e
:10115000f0ff3700889fbe008a9fbe008c9fbe00b4
:101160000004be005d0007000800be006420e1002e
:1011700048003e005500320072212700132b240046
:101180008600070047003c000800be00c2ec2800b3
:10119000e32c2c00ddfe0700470035000800be00f0
:1011a00001f0a1000200200003382300d7fe070051
:1011b000430035000800be00b2a32a0083fb2300d1
:1011c000f6fe07000200200003f0230001f0a70054
:1011d00003f0a00000fd070024ff07000005be008b
:1011e000d1fc070001f0a2000006be0002002800aa
:1011f00013f32300e9fe07000801be00f6fc070018
:10120000809fbe000c00be0032082800e3952b0032
:10121000e2fe07004f01be00effc07000006be0023
:101220000001be00ddfe0700809fbe004241250098
:1012300083b82300d9fe07000200200003e8230042
:10124000e5fc07000c01be00d4fe07000006be004e
:101250004f00be00f2f92b00c3d42300cffe0700dd
:101260000200200003f02300dbfc07000c01be009d
:10127000d8fc07000001be000c00be0073ff070091
:101280000200200003f02300d3fc070061014500a9
:10129000a0fe07004f06be004f05be004f04be0073
:1012a0000000060001f827000000200022022000b4
:1012b00082448800f7ff37006000b800fbff37006a
:1012c00001f8230000002000f2ff370009f8a30016
:1012d000f0ff32006000b800eeff3700c70ade0002
:1012e000f107b200f50fb20008003200e1cf420072
:1012f000020032000170a00024000500810f700080
:10130000010032000408050044000500810f700050
:1013100002003a00140005008502e90000004000c8
:1013200081c04800fcff3b000170a00024000500c4
:10133000889fbe008a9fbe00841f780027fe07009a
:101340004f00780011003300f0ff2f00838f6c00f6
:1013500006003b00040565000a00a70008003700ee
:1013600009f0a6001000200008003700820f54008a
:10137000838f5c00030039001000200001003e0054
:101380000000200009f0a7000000ea004f05be00a1
:101390004f04be000000e00000000600f4ff2f0034
:0413a000e3ff370030
:020000040000fa
:020000040002f8
:04aff8009efa0000bd
:020000040000fa
:020000040002f8
:04affc007f3f000093
:020000040000fa
:1000080090020000900200009002000090020000a0
:100018009002000090020000900200009002000090
:100028009002000090020000900200009002000080
:100038009002000090020000900200009002000070
:020000040000fa
:020000040000fa
:1013a4001a00fa00881f78000040eb00204f9800d4
:1013b4000040eb00104f98000040eb00004f9800f5
:1013c40010c0b3007047980010c0b3006047980085
:1013d40030c7b300504798005e4090000080fb0087
:1013e400610020007f010700004478005e40900007
:1013f4000080fb00510020007a01070000446c00cb
:101404005e4090000080fb00210020007501070071
:1014140000446c005e4090000080fb00110020003e
:101424007001070000406c004047980070c0b30092
:10143400304798000040eb00204798000040eb0044
:101444001047980010c0b300004f78000000eb0074
:101454001016880000f02f00001688000080eb00b2
:101464009016880000003700000000000e4890002d
:10147400e64f500007003a006e409000e14f5000e4
:1014840004003a0070c0b300204f980000c0eb0085
:10149400604798000e489000e44f500009003a005d
:1014a4006e409000e14f500006003a000040eb000f
:1014b400204f98000040eb00104f980000c0eb0054
:1014c400604798000e489000e74f50000d003a0026
:1014d4006e409000e14f50000a003a0070c0b30023
:1014e400304798000040eb00204798000040eb0094
:1014f4001047980010c0b300004f780000c0eb0004
:10150400604798000e489000e54f500009003a00eb
:101514006e409000e14f500006003a0000c9b3004d
:10152400104f980090c0b300204f980000c0eb000b
:10153400604798000e489000e24f500003003200cc
:101544000e489000e34f500009003a002e489000e6
:101554000080fb000000d100804078002e489000fd
:1015640000c068000080fb001016880010003700df
:101574000e489000e44f5000030032000e489000e3
:10158400e54f500007003a002e4890008080fb0091
:101594001e4890000080fb00008040001016880068
:1015a400030037002e4890000080fb0010168800ce
:1015b400008f260011002000600798007107980032
:1015c40007003700000000006e009000fe0090004d
:1015d40061005000e080580060079800710798008f
:1015e4006e009000fe009000e00f5000e08f580065
:1015f400f4ff3a00d5c2bf000042b2000004e0008c
:101604000c003a0010c0b300604798000e489000e8
:10161400e84f500003003a000040eb00004f9800f0
:10162400130037000e4890000040e800004f980077
:101634000f003700d4c2bf000044b2000004e00031
:101644000b003a0010c0b300604798000e489000a9
:101654000004e00003003a0080c0b300004f98008b
:10166400030037000e4890000040e900004f980046
:101674000e4890000080fb00400f98004e08900038
:10168400e40f5000310032004e089000e40f500087
:1016940011003c004e089000e10f50001f00320082
:1016a4004e089000e10f500004003c004e089000ea
:1016b4000000e00015003200c70037004e0890001b
:1016c400e20f5000190032004e089000e30f500062
:1016d4001a003200c00037004e089000e60f500098
:1016e4003f0032004e089000e60f50002b003500fa
:1016f4004e089000e70f5000520032004e08900050
:10170400e80f500092003200b30037002e489000da
:101714000040e800204f980053ff37002e48900007
:101724000040e900204f98004fff37002e489000fa
:101734000040e800204f98004bff37002e489000ef
:101744000040e900204f980047ff37002e489000e2
:101754000040e800204f98002e489000e94f5000c8
:10176400050036001e48900070404000104f98005d
:101774000040eb00204f98009e48900000c9b30041
:1017840080cf500038ff36000040eb00204f980017
:101794000040eb00104f980033ff37002e489000b4
:1017a4000040e900204f98002e4890000004e0001b
:1017b40005003a001e48900070405000104f9800f9
:1017c40090c0b300204f98001e489000ef4f500087
:1017d40025ff3e0010c0b3006047980022ff370089
:1017e4002e489000e74f500004003a0010c0b300a8
:1017f4007047980000c0eb0060479800ae48900026
:1018040000ceb30080cf500002003a0000c0eb00cd
:10181400704798007e409000e14f500004003a0069
:101824002e48900000404000204f98000eff3700e3
:101834002e4890000080fb000000d100204f98004b
:1018440009ff37001e409000e14f400009003a00b4
:1018540070c0b300304798000040eb002047980068
:101864000040eb001047980010c0b300004f780010
:1018740033003700ae4090003e40900080cf5000cf
:10188400070031001e40780000404000004f7800ff
:101894002e4090000040e8002047980028003700c0
:1018a4001e4090000080fb00cf80de001dfb07007f
:1018b400200f9800310f98003e4090000000fb007c
:1018c400cf80de0017fb0700000f9800110f98006f
:1018d4003e4090000004e00007003d0002002000ac
:1018e400033824000e0890009e08900039fb07007e
:1018f400000f9800110f98000e0990009e099000a7
:1019040000002000010024008ffb07000001be003e
:101914002e089000be0890002efb07006dfc070007
:10192400104798003e4090000040e900304798007e
:101934000040eb002047980010c0b300004f78002f
:101944001e4090001e404000204f9800c6fe370005
:101954005e4090000080fb0011002000480007005a
:10196400804078004e4090000080fb004500dd0080
:1019740000c07000504798005e409000204f9800cf
:101984005e4090000080fb0061002000150007000d
:10199400004478005e4090000080fb00510020006d
:1019a4001000070000446c005e4090000080fb00c3
:1019b400210020000b00070000446c005e409000f2
:1019c4000080fb00110020000600070000406c00ae
:1019d40040479800a4fe37000040eb00204f9800d9
:1019e400a1fe37000600fa001007980021079800ae
:1019f4001e00900008000700000f78002e009000e1
:101a0400000040001e0010000004b0001000780028
:101a14000080fa00000006000800fa003007980071
:101a24003e00900020079800f00120001007980065
:101a34000d0037009e0090003e00900061016000a0
:101a4400818040000085200000804000020878006a
:101a54001e0090000000e900100798003e0090006e
:101a64000080d100300798001e0090000000e000c4
:101a7400f0ff3d00008520000080fa000000060011
:101a84000400fa00000f7800110798009e00780007
:101a94001e0090000088de000080fa0000000600ae
:020000040000fa
:101aa4005008000040000000000000009008000002
:0c1ab40002000000000000000000000024
:00000001FF
