:020000040000fa
:080000000002040000000000f2
:020000040000fa
:100400000f8520000e7f22000e01880000000000f2
:100410000c000700e0392000010020001100070057
:10042000000020000000e000020032000000020096
:1004300000000000ca020200000000000040da00d4
:100440000000fe004440a900000020000000e00081
:100450000300320000002000a00188004440a800f2
:100460000000060091018800800078000000eb0089
:1004700015003700e280400032a0b4009101ba00bc
:10048000e280400032a0b4009102ba00e280400055
:1004900032a0b4000002eb00472bde00f507b200eb
:1004a000602ce10004003a000059eb008301e900f0
:1004b000fdff3e00040037006128e100010032002a
:1004c0000082eb00040007001101ba000200e00006
:1004d000e8ff3a00000006003159ba008301e90044
:1004e0000c0032002159ba008301e90008003200f3
:1004f0000400e00003003a00e280400032a0b400b3
:10050000f5ff370011d9ba008301e900faff3a007c
:100510008100e800e180400032a0b4000000060045
:080520000040da000000fe00bb
:020000040000fa
:020000040002f8
:04aff8009efa0000bd
:020000040000fa
:020000040002f8
:04affc007f3f000093
:020000040000fa
:1000080090020000900200009002000090020000a0
:100018009002000090020000900200009002000090
:100028009002000090020000900200009002000080
:100038009002000090020000900200009002000070
:020000040000fa
:020000040000fa
:100528000200fa00000f78001e00780060198800a9
:10053800000e2000001988000000eb0080198800d8
:100548000000eb001019880020f021002019880015
:1005580021e3a8000080fa00000006000200fa006b
:10056800000f78001e007800401988002023a8009a
:1005780020c3bf00614060000004e000fcff3200bf
:10058800001880000080fa00000006000c00fa0045
:1005980000f02f00001688000080eb0090168800fd
:1005a8000040eb0040479800a0002000000f7800b2
:1005b8000000eb0010168800f0fc2f00d8ff0700a1
:1005c80010c0b3004047980000003700000000004a
:1005d8009e009000a00f2000808f500002003c0079
:1005e8000040eb00404798004e4090000080fb0020
:1005f8001016880000992500210020004007980067
:100608005107980007003700000000004e009000d6
:10061800de00900061005000e0805800400798001c
:10062800510798004e009000de009000e00f500047
:10063800e08f5800f4ff3a0040002000c7ff070091
:10064800100798009e009000a00f2000808f500097
:10065800deff3400600020003007980031003700ca
:1006680000992500210020004007980051079800b4
:1006780007003700000000004e009000de009000e8
:1006880061005000e080580040079800510798002a
:100698004e009000de009000e00f5000e08f580000
:1006a800f4ff3a0040002000acff07001007980054
:1006b8009e009000a00f2000808f500003003c0097
:1006c8000040eb0040479800c0ff37004e409000c4
:1006d800e14f500003003a000040eb00404798000b
:1006e800050037004e4090000004e00002003a0088
:1006f80010c0b300404798003e0090000000e000a2
:1007080002003a0000c0eb00404798004e409000bd
:100718000080fb00101688003e0090000000e900f1
:10072800300798003e0090000000e000ccff3d003c
:04073800a6ff3700e1
:020000040000fa
:04073c0000000000b9
:00000001FF
